:100000000C942A000C9447000C9447000C94470071
:100010000C9447000C9447000C9447000C94470044
:100020000C9447000C9447000C9447000C94470034
:100030000C9447000C940D050C9447000C94E404B8
:100040000C9447000C9447000C9447000C94470014
:100050000C94470011241FBECFE5D8E0DEBFCDBF12
:1000600010E0A0E6B0E0EEEBFCE002C005900D92DF
:10007000A238B107D9F722E0A2E8B0E001C01D9292
:10008000A232B207E1F70E943E010C945D060C9487
:10009000000080E00E943501089581E00E94350152
:1000A0000895789480E090E00E94DF050E94DC00D3
:1000B00080E00E942C0181E00E942C0182E00E94DD
:1000C0002C0183E00E942C0108956DE470E081E032
:1000D0000E944F0669E470E080E00E944F0683E7CB
:1000E00090E00E94E40582E890E00E941C060895DA
:1000F000CF93C82F60E081E10E94450260E082E179
:100100000E944502C4FB662760F984E10E94450213
:10011000C5FB662760F985E10E944502C6FB66279C
:1001200060F986E10E9445026C2F661F6627661FF4
:1001300087E10E94450261E083E10E94450289EF68
:1001400090E00197F1F700C0000060E083E10E94B9
:10015000450289EF90E00197F1F700C000006C2F95
:10016000617084E10E944502C1FB662760F985E168
:100170000E944502C2FB662760F986E10E944502A3
:10018000C3FB662760F987E10E94450261E083E1D5
:100190000E94450289EF90E00197F1F700C000004E
:1001A00060E083E10E94450289EF90E00197F1F75A
:1001B00000C00000CF91089560E084E10E944301F7
:1001C00060E085E10E94430160E086E10E94430116
:1001D00060E087E10E94430160E081E10E94430109
:1001E00060E082E10E94430160E083E10E944301FC
:1001F00083ED90E30197F1F700C0000082E00E94D8
:10020000780089EF90E00197F1F700C0000088E2E4
:100210000E94780089EF90E00197F1F700C000009C
:100220008CE00E94780089EF90E00197F1F700C020
:10023000000081E00E94780083EF91E00197F1F7E0
:1002400000C0000086E00E94780089EF90E00197EE
:10025000F1F700C000000895883228F460E00E94A1
:10026000430180E0089581E00895883228F461E038
:100270000E94450280E0089581E008950E945100A7
:100280000E946500FFCF982F96959695969595308C
:1002900008F0F9C08770613031F008F4A4C0623012
:1002A00009F451C0EFC09130C1F028F0923039F11B
:1002B0009330B9F1E7C04AB321E030E0B90102C0A0
:1002C000660F771F8A95E2F7CB018095942F9823CC
:1002D0009ABB9BB389238BBBD5C047B321E030E0E9
:1002E000B90102C0660F771F8A95E2F7CB018095AE
:1002F000942F982397BB98B3892388BBC3C044B37A
:1003000021E030E0B90102C0660F771F8A95E2F75D
:10031000CB018095942F982394BB95B3892385BBFB
:10032000B1C041B321E030E0B90102C0660F771FD0
:100330008A95E2F7CB018095942F982391BB92B3D5
:10034000892382BB9FC09130C1F028F0923039F1EF
:100350009330B9F197C04AB321E030E0B90102C04F
:10036000660F771F8A95E2F7CB01962F909594231D
:100370009ABB9BB3892B8BBB85C047B321E030E090
:10038000B90102C0660F771F8A95E2F7CB01962F5D
:100390009095942397BB98B3892B88BB73C044B3C3
:1003A00021E030E0B90102C0660F771F8A95E2F7BD
:1003B000CB01962F9095942394BB95B3892B85BB45
:1003C00061C041B321E030E0B90102C0660F771F80
:1003D0008A95E2F7CB01962F9095942391BB92B327
:1003E000892B82BB4FC09130C1F028F0923039F197
:1003F0009330B9F147C04BB321E030E0B90102C0FE
:10040000660F771F8A95E2F7CB01962F909594237C
:100410009BBB9AB3892B8ABB35C048B321E030E03F
:10042000B90102C0660F771F8A95E2F7CB01962FBC
:100430009095942398BB97B3892B87BB23C045B372
:1004400021E030E0B90102C0660F771F8A95E2F71C
:10045000CB01962F9095942395BB94B3892B84BBA5
:1004600011C042B321E030E0B90102C0660F771F2E
:100470008A95E2F7CB01962F9095942392BB91B386
:10048000892B81BB089582E00895982F96959695C3
:100490009695953008F08EC0633008F08DC0877057
:1004A000613009F040C09130A1F028F09230F9F0AD
:1004B000933059F183C04BB321E030E0B90102C061
:1004C000660F771F8A95E2F7CB01842B8BBB80E008
:1004D000089548B321E030E0B90102C0660F771FEC
:1004E0008A95E2F7CB01842B88BB80E0089545B361
:1004F00021E030E0B90102C0660F771F8A95E2F76C
:10050000CB01842B85BB80E0089542B321E030E02D
:10051000B90102C0660F771F8A95E2F7CB01842BE1
:1005200082BB80E00895611144C09130A9F028F0A9
:10053000923009F1933071F143C04BB321E030E0C8
:10054000B90102C0660F771F8A95E2F7CB0180954B
:1005500084238BBB80E0089548B321E030E0B901EB
:1005600002C0660F771F8A95E2F7CB01809584233E
:1005700088BB80E0089545B321E030E0B90102C0B6
:10058000660F771F8A95E2F7CB018095842385BBA0
:1005900080E0089542B321E030E0B90102C0660F67
:1005A000771F8A95E2F7CB018095842382BB80E098
:1005B0000895089582E0089583E0089580E0089505
:1005C00080E0089590E0FC01EE0FFF1FE80FF91F97
:1005D000EE0FFF1FE05AFF4F2581211116C0FC01CD
:1005E000EE0FFF1FE80FF91FEE0FFF1FE05AFF4F3E
:1005F0002081211103C02FEC29B903C1213009F05A
:10060000BBC120BD20EA29B9FCC02130A9F4FC01FE
:10061000EE0FFF1FE80FF91FEE0FFF1FE05AFF4F0D
:100620002081211103C027E629B9EBC0213009F050
:10063000A3C12FEC29B9E5C02230A9F4FC01EE0FCB
:10064000FF1FE80FF91FEE0FFF1FE05AFF4F208139
:10065000211103C023E329B9D4C0213009F08CC192
:1006600027E629B9CEC02330A9F4FC01EE0FFF1F05
:10067000E80FF91FEE0FFF1FE05AFF4F20812111F5
:1006800003C022E229B9BDC0213009F075C124E4BC
:1006900029B9B7C02430A9F4FC01EE0FFF1FE80F01
:1006A000F91FEE0FFF1FE05AFF4F2081211103C0F9
:1006B00029E129B9A6C0213009F05EC123E329B997
:1006C000A0C02530A9F4FC01EE0FFF1FE80FF91FB1
:1006D000EE0FFF1FE05AFF4F2081211103C020E1E0
:1006E00029B98FC0213009F047C122E229B989C058
:1006F0002630A9F4FC01EE0FFF1FE80FF91FEE0FE3
:10070000FF1FE05AFF4F2081211103C02CE029B9BF
:1007100078C0213009F030C129E129B972C02730F1
:10072000A9F4FC01EE0FFF1FE80FF91FEE0FFF1FEA
:10073000E05AFF4F2081211103C028E029B961C090
:10074000213009F019C120E129B95BC02830A9F492
:10075000FC01EE0FFF1FE80FF91FEE0FFF1FE05A1D
:10076000FF4F2081211103C028E029B94AC0213060
:1007700009F002C12CE029B944C02930A9F4FC01D8
:10078000EE0FFF1FE80FF91FEE0FFF1FE05AFF4F9C
:100790002081211103C023E029B933C0213009F0A1
:1007A000EBC028E029B92DC02A30A9F4FC01EE0FD6
:1007B000FF1FE80FF91FEE0FFF1FE05AFF4F2081C8
:1007C000211103C021E029B91CC0213009F0D4C097
:1007D00023E029B916C02B30A1F4FC01EE0FFF1F56
:1007E000E80FF91FEE0FFF1FE05AFF4F2081211184
:1007F00003C021E029B905C0213009F0BDC023E0C4
:1008000029B9FC01EE0FFF1FE80FF91FEE0FFF1FC4
:10081000E05AFF4F2081211102C05A9804C02130B4
:1008200009F092C05A9AFC01EE0FFF1FE80FF91F62
:10083000EE0FFF1FE05AFF4F2181211107C020B5A5
:100840002F7E20BD20B52F7D20BD1BC0FC01EE0FEB
:10085000FF1FE80FF91FEE0FFF1FE05AFF4F208127
:10086000213039F420B52F7E20BD20B5206220BD77
:1008700008C0223031F420B5206120BD20B52062AF
:1008800020BDFC01EE0FFF1FE80FF91FEE0FFF1F49
:10089000E05AFF4F2281211104C020B5277F20BDDF
:1008A00005C0213019F420B5286020BDFC01EE0FF1
:1008B000FF1FE80FF91FEE0FFF1FE05AFF4F2481C3
:1008C000253039F420B52D7F20BD20B52B7F20BDEC
:1008D00024C0FC01EE0FFF1FE80FF91FEE0FFF1FF2
:1008E000E05AFF4F2381263039F420B5226020BD25
:1008F00020B52B7F20BD11C0273039F420B52D7FC6
:1009000020BD20B5246020BD08C0283031F420B5BA
:10091000226020BD20B5246020BDFC01EE0FFF1F2A
:10092000E80FF91FEE0FFF1FE05AFF4F848181117E
:1009300002C0539A0895813011F4549A0895823078
:1009400041F5539A549A0895FC01EE0FFF1FE80FEA
:10095000F91FEE0FFF1FE05AFF4F3181311189CF90
:100960006ECFFC01EE0FFF1FE80FF91FEE0FFF1F08
:10097000E05AFF4F20817DCFFC01EE0FFF1FE80FF3
:10098000F91FEE0FFF1FE05AFF4F21812111E9CF20
:1009900056CF08958CB908958CB10895569A08954C
:1009A000579A08955698089557980895811105C04B
:1009B00070934D0160934C010895813021F4709340
:1009C0004B0160934A0108951F920F920FB60F9248
:1009D00011242F933F934F935F936F937F938F9344
:1009E0009F93AF93BF93EF93FF93E0914C01F091EE
:1009F0004D01309709F00995FF91EF91BF91AF91AB
:100A00009F918F917F916F915F914F913F912F9126
:100A10000F900FBE0F901F9018951F920F920FB658
:100A20000F9211242F933F934F935F936F937F9374
:100A30008F939F93AF93BF93EF93FF93E0914A01FE
:100A4000F0914B01309709F00995FF91EF91BF911B
:100A5000AF919F918F917F916F915F914F913F9156
:100A60002F910F900FBE0F901F901895209150015D
:100A700030E0F901EE0FFF1FE654FE4F8091720047
:100A80000190F081E02DE80FF11D8081882341F075
:100A90000E94CA04809172008F5F80937200089553
:100AA000220F331FF901E454FE4F80819181892B7D
:100AB000D9F083E20E94CA0410927200E0915001C2
:100AC000EF5FE0935001F0E0EE0FFF1FE654FE4FA2
:100AD0000190F081E02D80810E94CA048091720013
:100AE0008F5F809372000895E0912002F0912102BF
:100AF000309709F0099581E08093720010925501BA
:100B000083E20E94CA040E94D2040895CF93DF9327
:100B1000E0914F01F0E0EE0FFF1FEA5AFE4F809187
:100B20004E01C081D181C80FD11D0E94CC048883A1
:100B3000E0914F018E2F90E020914E01DC01AA0F31
:100B4000BB1FAA5ABE4F0D90BC91A02DA20FB11D84
:100B50003C91333221F02F5F20934E012DC0880F3E
:100B6000991FDC01A85ABE4F8D919C91892BA1F051
:100B7000EF5FE0934F01F0E0EE0FFF1FEA5AFE4FE8
:100B8000C081D18181E080934E010E94CC04888392
:100B900084E08093530110C0E0911E02F0911F0287
:100BA000309709F0099510924E011092540184E09B
:100BB000809353010E94D404DF91CF910895FC01EA
:100BC00080810E94E2020895CF93DF939C0180917F
:100BD0005501811121C0E9010E94CE0420915201EA
:100BE00030E0F901EE0FFF1FE654FE4FD183C083C2
:100BF000FE01E20FF31F80810E94CA0466E375E0E4
:100C000080E00E94D60481E08093550180915201DA
:100C10008F5F809352010DC090915201E92FF0E057
:100C2000EE0FFF1FE654FE4F318320839F5F9093AA
:100C30005201DF91CF910895CF93DF939C01809172
:100C4000540181111CC0E9010E94D004E0915101BE
:100C5000F0E0EE0FFF1FEA5AFE4FD183C08366E833
:100C600075E081E00E94D604809154018F5F8093EB
:100C70005401809151018F5F809351010DC090917B
:100C80005101E92FF0E0EE0FFF1FEA5AFE4F3183CA
:100C900020839F5F90935101DF91CF91089581113F
:100CA00005C070932102609320020895813021F4E1
:0E0CB00070931F0260931E020895F894FFCF08
:100CBE0000000008020200010109060101020007FE
:100CCE0000000142434D204F7065726174696E677A
:020CDE00000014
:00000001FF
